{
  "_format": "hh-sol-artifact-1",
  "contractName": "LiquidityPool",
  "sourceName": "contracts/LiquidityPool.sol",
  "abi": [
    {
      "inputs": [
        {
          "internalType": "contract BLTMToken",
          "name": "_bltmToken",
          "type": "address"
        },
        {
          "internalType": "contract IERC20",
          "name": "_usdcToken",
          "type": "address"
        },
        {
          "internalType": "uint256",
          "name": "_exchangeRate",
          "type": "uint256"
        }
      ],
      "stateMutability": "nonpayable",
      "type": "constructor"
    },
    {
      "inputs": [],
      "name": "AccessControlBadConfirmation",
      "type": "error"
    },
    {
      "inputs": [
        {
          "internalType": "address",
          "name": "account",
          "type": "address"
        },
        {
          "internalType": "bytes32",
          "name": "neededRole",
          "type": "bytes32"
        }
      ],
      "name": "AccessControlUnauthorizedAccount",
      "type": "error"
    },
    {
      "anonymous": false,
      "inputs": [
        {
          "indexed": true,
          "internalType": "bytes32",
          "name": "role",
          "type": "bytes32"
        },
        {
          "indexed": true,
          "internalType": "bytes32",
          "name": "previousAdminRole",
          "type": "bytes32"
        },
        {
          "indexed": true,
          "internalType": "bytes32",
          "name": "newAdminRole",
          "type": "bytes32"
        }
      ],
      "name": "RoleAdminChanged",
      "type": "event"
    },
    {
      "anonymous": false,
      "inputs": [
        {
          "indexed": true,
          "internalType": "bytes32",
          "name": "role",
          "type": "bytes32"
        },
        {
          "indexed": true,
          "internalType": "address",
          "name": "account",
          "type": "address"
        },
        {
          "indexed": true,
          "internalType": "address",
          "name": "sender",
          "type": "address"
        }
      ],
      "name": "RoleGranted",
      "type": "event"
    },
    {
      "anonymous": false,
      "inputs": [
        {
          "indexed": true,
          "internalType": "bytes32",
          "name": "role",
          "type": "bytes32"
        },
        {
          "indexed": true,
          "internalType": "address",
          "name": "account",
          "type": "address"
        },
        {
          "indexed": true,
          "internalType": "address",
          "name": "sender",
          "type": "address"
        }
      ],
      "name": "RoleRevoked",
      "type": "event"
    },
    {
      "inputs": [],
      "name": "DEFAULT_ADMIN_ROLE",
      "outputs": [
        {
          "internalType": "bytes32",
          "name": "",
          "type": "bytes32"
        }
      ],
      "stateMutability": "view",
      "type": "function"
    },
    {
      "inputs": [],
      "name": "OWNER_ROLE",
      "outputs": [
        {
          "internalType": "bytes32",
          "name": "",
          "type": "bytes32"
        }
      ],
      "stateMutability": "view",
      "type": "function"
    },
    {
      "inputs": [],
      "name": "bltmToken",
      "outputs": [
        {
          "internalType": "contract BLTMToken",
          "name": "",
          "type": "address"
        }
      ],
      "stateMutability": "view",
      "type": "function"
    },
    {
      "inputs": [
        {
          "internalType": "uint256",
          "name": "bltmAmount",
          "type": "uint256"
        }
      ],
      "name": "exchangeBLTMForUSDC",
      "outputs": [],
      "stateMutability": "nonpayable",
      "type": "function"
    },
    {
      "inputs": [],
      "name": "exchangeRate",
      "outputs": [
        {
          "internalType": "uint256",
          "name": "",
          "type": "uint256"
        }
      ],
      "stateMutability": "view",
      "type": "function"
    },
    {
      "inputs": [
        {
          "internalType": "uint256",
          "name": "usdcAmount",
          "type": "uint256"
        }
      ],
      "name": "exchangeUSDCForBLTM",
      "outputs": [],
      "stateMutability": "nonpayable",
      "type": "function"
    },
    {
      "inputs": [
        {
          "internalType": "bytes32",
          "name": "role",
          "type": "bytes32"
        }
      ],
      "name": "getRoleAdmin",
      "outputs": [
        {
          "internalType": "bytes32",
          "name": "",
          "type": "bytes32"
        }
      ],
      "stateMutability": "view",
      "type": "function"
    },
    {
      "inputs": [
        {
          "internalType": "bytes32",
          "name": "role",
          "type": "bytes32"
        },
        {
          "internalType": "address",
          "name": "account",
          "type": "address"
        }
      ],
      "name": "grantRole",
      "outputs": [],
      "stateMutability": "nonpayable",
      "type": "function"
    },
    {
      "inputs": [
        {
          "internalType": "bytes32",
          "name": "role",
          "type": "bytes32"
        },
        {
          "internalType": "address",
          "name": "account",
          "type": "address"
        }
      ],
      "name": "hasRole",
      "outputs": [
        {
          "internalType": "bool",
          "name": "",
          "type": "bool"
        }
      ],
      "stateMutability": "view",
      "type": "function"
    },
    {
      "inputs": [
        {
          "internalType": "bytes32",
          "name": "role",
          "type": "bytes32"
        },
        {
          "internalType": "address",
          "name": "callerConfirmation",
          "type": "address"
        }
      ],
      "name": "renounceRole",
      "outputs": [],
      "stateMutability": "nonpayable",
      "type": "function"
    },
    {
      "inputs": [
        {
          "internalType": "bytes32",
          "name": "role",
          "type": "bytes32"
        },
        {
          "internalType": "address",
          "name": "account",
          "type": "address"
        }
      ],
      "name": "revokeRole",
      "outputs": [],
      "stateMutability": "nonpayable",
      "type": "function"
    },
    {
      "inputs": [
        {
          "internalType": "uint256",
          "name": "newRate",
          "type": "uint256"
        }
      ],
      "name": "setExchangeRate",
      "outputs": [],
      "stateMutability": "nonpayable",
      "type": "function"
    },
    {
      "inputs": [
        {
          "internalType": "bytes4",
          "name": "interfaceId",
          "type": "bytes4"
        }
      ],
      "name": "supportsInterface",
      "outputs": [
        {
          "internalType": "bool",
          "name": "",
          "type": "bool"
        }
      ],
      "stateMutability": "view",
      "type": "function"
    },
    {
      "inputs": [],
      "name": "usdcToken",
      "outputs": [
        {
          "internalType": "contract IERC20",
          "name": "",
          "type": "address"
        }
      ],
      "stateMutability": "view",
      "type": "function"
    },
    {
      "inputs": [
        {
          "internalType": "uint256",
          "name": "usdcAmount",
          "type": "uint256"
        }
      ],
      "name": "withdrawUSDC",
      "outputs": [],
      "stateMutability": "nonpayable",
      "type": "function"
    }
  ],
  "bytecode": "0x608060405234801561001057600080fd5b5060405161186d38038061186d8339818101604052810190610032919061035c565b82600160006101000a81548173ffffffffffffffffffffffffffffffffffffffff021916908373ffffffffffffffffffffffffffffffffffffffff16021790555081600260006101000a81548173ffffffffffffffffffffffffffffffffffffffff021916908373ffffffffffffffffffffffffffffffffffffffff160217905550600081116100c35760016100c5565b805b6003819055506100fb7fb19546dff01e856fb3f010c267a7b1c60363cf8a4664e21cc89c26224620214e3361010460201b60201c565b505050506103af565b6000610116838361020160201b60201c565b6101f657600160008085815260200190815260200160002060000160008473ffffffffffffffffffffffffffffffffffffffff1673ffffffffffffffffffffffffffffffffffffffff16815260200190815260200160002060006101000a81548160ff02191690831515021790555061019361026b60201b60201c565b73ffffffffffffffffffffffffffffffffffffffff168273ffffffffffffffffffffffffffffffffffffffff16847f2f8788117e7eff1d82e926ec794901d17c78024a50270940304540a733656f0d60405160405180910390a4600190506101fb565b600090505b92915050565b600080600084815260200190815260200160002060000160008373ffffffffffffffffffffffffffffffffffffffff1673ffffffffffffffffffffffffffffffffffffffff16815260200190815260200160002060009054906101000a900460ff16905092915050565b600033905090565b600080fd5b600073ffffffffffffffffffffffffffffffffffffffff82169050919050565b60006102a382610278565b9050919050565b60006102b582610298565b9050919050565b6102c5816102aa565b81146102d057600080fd5b50565b6000815190506102e2816102bc565b92915050565b60006102f382610298565b9050919050565b610303816102e8565b811461030e57600080fd5b50565b600081519050610320816102fa565b92915050565b6000819050919050565b61033981610326565b811461034457600080fd5b50565b60008151905061035681610330565b92915050565b60008060006060848603121561037557610374610273565b5b6000610383868287016102d3565b935050602061039486828701610311565b92505060406103a586828701610347565b9150509250925092565b6114af806103be6000396000f3fe608060405234801561001057600080fd5b50600436106100f55760003560e01c806391d1485411610097578063d547741f11610066578063d547741f14610272578063db068e0e1461028e578063db81f99b146102aa578063e58378bb146102c6576100f5565b806391d14854146101ec578063a217fddf1461021c578063b44cb78d1461023a578063d083e9f614610256576100f5565b8063248a9ca3116100d3578063248a9ca3146101665780632f2ff15d1461019657806336568abe146101b25780633ba0b9a9146101ce576100f5565b806301ffc9a7146100fa57806311eac8551461012a578063232e249f14610148575b600080fd5b610114600480360381019061010f9190610e5d565b6102e4565b6040516101219190610ea5565b60405180910390f35b61013261035e565b60405161013f9190610f3f565b60405180910390f35b610150610384565b60405161015d9190610f7b565b60405180910390f35b610180600480360381019061017b9190610fcc565b6103aa565b60405161018d9190611008565b60405180910390f35b6101b060048036038101906101ab9190611061565b6103c9565b005b6101cc60048036038101906101c79190611061565b6103eb565b005b6101d6610466565b6040516101e391906110ba565b60405180910390f35b61020660048036038101906102019190611061565b61046c565b6040516102139190610ea5565b60405180910390f35b6102246104d6565b6040516102319190611008565b60405180910390f35b610254600480360381019061024f9190611101565b6104dd565b005b610270600480360381019061026b9190611101565b6106d5565b005b61028c60048036038101906102879190611061565b61097b565b005b6102a860048036038101906102a39190611101565b61099d565b005b6102c460048036038101906102bf9190611101565b6109d2565b005b6102ce610b22565b6040516102db9190611008565b60405180910390f35b60007f7965db0b000000000000000000000000000000000000000000000000000000007bffffffffffffffffffffffffffffffffffffffffffffffffffffffff1916827bffffffffffffffffffffffffffffffffffffffffffffffffffffffff19161480610357575061035682610b46565b5b9050919050565b600260009054906101000a900473ffffffffffffffffffffffffffffffffffffffff1681565b600160009054906101000a900473ffffffffffffffffffffffffffffffffffffffff1681565b6000806000838152602001908152602001600020600101549050919050565b6103d2826103aa565b6103db81610bb0565b6103e58383610bc4565b50505050565b6103f3610cb5565b73ffffffffffffffffffffffffffffffffffffffff168173ffffffffffffffffffffffffffffffffffffffff1614610457576040517f6697b23200000000000000000000000000000000000000000000000000000000815260040160405180910390fd5b6104618282610cbd565b505050565b60035481565b600080600084815260200190815260200160002060000160008373ffffffffffffffffffffffffffffffffffffffff1673ffffffffffffffffffffffffffffffffffffffff16815260200190815260200160002060009054906101000a900460ff16905092915050565b6000801b81565b60008111610520576040517f08c379a00000000000000000000000000000000000000000000000000000000081526004016105179061118b565b60405180910390fd5b6000606460028361053191906111da565b61053b919061124b565b90506000818361054b919061127c565b905060006003548261055d91906111da565b9050600260009054906101000a900473ffffffffffffffffffffffffffffffffffffffff1673ffffffffffffffffffffffffffffffffffffffff166323b872dd3330876040518463ffffffff1660e01b81526004016105be939291906112bf565b6020604051808303816000875af11580156105dd573d6000803e3d6000fd5b505050506040513d601f19601f820116820180604052508101906106019190611322565b610640576040517f08c379a00000000000000000000000000000000000000000000000000000000081526004016106379061139b565b60405180910390fd5b600160009054906101000a900473ffffffffffffffffffffffffffffffffffffffff1673ffffffffffffffffffffffffffffffffffffffff166340c10f1933836040518363ffffffff1660e01b815260040161069d9291906113bb565b600060405180830381600087803b1580156106b757600080fd5b505af11580156106cb573d6000803e3d6000fd5b5050505050505050565b60008111610718576040517f08c379a000000000000000000000000000000000000000000000000000000000815260040161070f9061118b565b60405180910390fd5b600060035482610728919061124b565b9050600160009054906101000a900473ffffffffffffffffffffffffffffffffffffffff1673ffffffffffffffffffffffffffffffffffffffff166323b872dd3330856040518463ffffffff1660e01b8152600401610789939291906112bf565b6020604051808303816000875af11580156107a8573d6000803e3d6000fd5b505050506040513d601f19601f820116820180604052508101906107cc9190611322565b61080b576040517f08c379a000000000000000000000000000000000000000000000000000000000815260040161080290611430565b60405180910390fd5b600160009054906101000a900473ffffffffffffffffffffffffffffffffffffffff1673ffffffffffffffffffffffffffffffffffffffff166342966c68836040518263ffffffff1660e01b815260040161086691906110ba565b600060405180830381600087803b15801561088057600080fd5b505af1158015610894573d6000803e3d6000fd5b50505050600260009054906101000a900473ffffffffffffffffffffffffffffffffffffffff1673ffffffffffffffffffffffffffffffffffffffff1663a9059cbb33836040518363ffffffff1660e01b81526004016108f59291906113bb565b6020604051808303816000875af1158015610914573d6000803e3d6000fd5b505050506040513d601f19601f820116820180604052508101906109389190611322565b610977576040517f08c379a000000000000000000000000000000000000000000000000000000000815260040161096e9061139b565b60405180910390fd5b5050565b610984826103aa565b61098d81610bb0565b6109978383610cbd565b50505050565b7fb19546dff01e856fb3f010c267a7b1c60363cf8a4664e21cc89c26224620214e6109c781610bb0565b816003819055505050565b7fb19546dff01e856fb3f010c267a7b1c60363cf8a4664e21cc89c26224620214e6109fc81610bb0565b60008211610a3f576040517f08c379a0000000000000000000000000000000000000000000000000000000008152600401610a369061118b565b60405180910390fd5b600260009054906101000a900473ffffffffffffffffffffffffffffffffffffffff1673ffffffffffffffffffffffffffffffffffffffff1663a9059cbb33846040518363ffffffff1660e01b8152600401610a9c9291906113bb565b6020604051808303816000875af1158015610abb573d6000803e3d6000fd5b505050506040513d601f19601f82011682018060405250810190610adf9190611322565b610b1e576040517f08c379a0000000000000000000000000000000000000000000000000000000008152600401610b159061139b565b60405180910390fd5b5050565b7fb19546dff01e856fb3f010c267a7b1c60363cf8a4664e21cc89c26224620214e81565b60007f01ffc9a7000000000000000000000000000000000000000000000000000000007bffffffffffffffffffffffffffffffffffffffffffffffffffffffff1916827bffffffffffffffffffffffffffffffffffffffffffffffffffffffff1916149050919050565b610bc181610bbc610cb5565b610daf565b50565b6000610bd0838361046c565b610caa57600160008085815260200190815260200160002060000160008473ffffffffffffffffffffffffffffffffffffffff1673ffffffffffffffffffffffffffffffffffffffff16815260200190815260200160002060006101000a81548160ff021916908315150217905550610c47610cb5565b73ffffffffffffffffffffffffffffffffffffffff168273ffffffffffffffffffffffffffffffffffffffff16847f2f8788117e7eff1d82e926ec794901d17c78024a50270940304540a733656f0d60405160405180910390a460019050610caf565b600090505b92915050565b600033905090565b6000610cc9838361046c565b15610da457600080600085815260200190815260200160002060000160008473ffffffffffffffffffffffffffffffffffffffff1673ffffffffffffffffffffffffffffffffffffffff16815260200190815260200160002060006101000a81548160ff021916908315150217905550610d41610cb5565b73ffffffffffffffffffffffffffffffffffffffff168273ffffffffffffffffffffffffffffffffffffffff16847ff6391f5c32d9c69d2a47ea670b442974b53935d1edc7fd64eb21e047a839171b60405160405180910390a460019050610da9565b600090505b92915050565b610db9828261046c565b610dfc5780826040517fe2517d3f000000000000000000000000000000000000000000000000000000008152600401610df3929190611450565b60405180910390fd5b5050565b600080fd5b60007fffffffff0000000000000000000000000000000000000000000000000000000082169050919050565b610e3a81610e05565b8114610e4557600080fd5b50565b600081359050610e5781610e31565b92915050565b600060208284031215610e7357610e72610e00565b5b6000610e8184828501610e48565b91505092915050565b60008115159050919050565b610e9f81610e8a565b82525050565b6000602082019050610eba6000830184610e96565b92915050565b600073ffffffffffffffffffffffffffffffffffffffff82169050919050565b6000819050919050565b6000610f05610f00610efb84610ec0565b610ee0565b610ec0565b9050919050565b6000610f1782610eea565b9050919050565b6000610f2982610f0c565b9050919050565b610f3981610f1e565b82525050565b6000602082019050610f546000830184610f30565b92915050565b6000610f6582610f0c565b9050919050565b610f7581610f5a565b82525050565b6000602082019050610f906000830184610f6c565b92915050565b6000819050919050565b610fa981610f96565b8114610fb457600080fd5b50565b600081359050610fc681610fa0565b92915050565b600060208284031215610fe257610fe1610e00565b5b6000610ff084828501610fb7565b91505092915050565b61100281610f96565b82525050565b600060208201905061101d6000830184610ff9565b92915050565b600061102e82610ec0565b9050919050565b61103e81611023565b811461104957600080fd5b50565b60008135905061105b81611035565b92915050565b6000806040838503121561107857611077610e00565b5b600061108685828601610fb7565b92505060206110978582860161104c565b9150509250929050565b6000819050919050565b6110b4816110a1565b82525050565b60006020820190506110cf60008301846110ab565b92915050565b6110de816110a1565b81146110e957600080fd5b50565b6000813590506110fb816110d5565b92915050565b60006020828403121561111757611116610e00565b5b6000611125848285016110ec565b91505092915050565b600082825260208201905092915050565b7f416d6f756e74206d75737420626520706f736974697665000000000000000000600082015250565b600061117560178361112e565b91506111808261113f565b602082019050919050565b600060208201905081810360008301526111a481611168565b9050919050565b7f4e487b7100000000000000000000000000000000000000000000000000000000600052601160045260246000fd5b60006111e5826110a1565b91506111f0836110a1565b92508282026111fe816110a1565b91508282048414831517611215576112146111ab565b5b5092915050565b7f4e487b7100000000000000000000000000000000000000000000000000000000600052601260045260246000fd5b6000611256826110a1565b9150611261836110a1565b9250826112715761127061121c565b5b828204905092915050565b6000611287826110a1565b9150611292836110a1565b92508282039050818111156112aa576112a96111ab565b5b92915050565b6112b981611023565b82525050565b60006060820190506112d460008301866112b0565b6112e160208301856112b0565b6112ee60408301846110ab565b949350505050565b6112ff81610e8a565b811461130a57600080fd5b50565b60008151905061131c816112f6565b92915050565b60006020828403121561133857611337610e00565b5b60006113468482850161130d565b91505092915050565b7f55534443207472616e73666572206661696c6564000000000000000000000000600082015250565b600061138560148361112e565b91506113908261134f565b602082019050919050565b600060208201905081810360008301526113b481611378565b9050919050565b60006040820190506113d060008301856112b0565b6113dd60208301846110ab565b9392505050565b7f424c544d207472616e73666572206661696c6564000000000000000000000000600082015250565b600061141a60148361112e565b9150611425826113e4565b602082019050919050565b600060208201905081810360008301526114498161140d565b9050919050565b600060408201905061146560008301856112b0565b6114726020830184610ff9565b939250505056fea26469706673582212208c96dc307eb1476543c49c91f9ba78327c89694d6a7fddcbc8110fea9de1463264736f6c634300081b0033",
  "linkReferences": {},
  "deployedLinkReferences": {}
}