{
  "_format": "hh-sol-artifact-1",
  "contractName": "BLTMToken",
  "sourceName": "contracts/BLTMToken.sol",
  "abi": [
    {
      "inputs": [],
      "stateMutability": "nonpayable",
      "type": "constructor"
    },
    {
      "inputs": [],
      "name": "AccessControlBadConfirmation",
      "type": "error"
    },
    {
      "inputs": [
        {
          "internalType": "address",
          "name": "account",
          "type": "address"
        },
        {
          "internalType": "bytes32",
          "name": "neededRole",
          "type": "bytes32"
        }
      ],
      "name": "AccessControlUnauthorizedAccount",
      "type": "error"
    },
    {
      "inputs": [
        {
          "internalType": "address",
          "name": "spender",
          "type": "address"
        },
        {
          "internalType": "uint256",
          "name": "allowance",
          "type": "uint256"
        },
        {
          "internalType": "uint256",
          "name": "needed",
          "type": "uint256"
        }
      ],
      "name": "ERC20InsufficientAllowance",
      "type": "error"
    },
    {
      "inputs": [
        {
          "internalType": "address",
          "name": "sender",
          "type": "address"
        },
        {
          "internalType": "uint256",
          "name": "balance",
          "type": "uint256"
        },
        {
          "internalType": "uint256",
          "name": "needed",
          "type": "uint256"
        }
      ],
      "name": "ERC20InsufficientBalance",
      "type": "error"
    },
    {
      "inputs": [
        {
          "internalType": "address",
          "name": "approver",
          "type": "address"
        }
      ],
      "name": "ERC20InvalidApprover",
      "type": "error"
    },
    {
      "inputs": [
        {
          "internalType": "address",
          "name": "receiver",
          "type": "address"
        }
      ],
      "name": "ERC20InvalidReceiver",
      "type": "error"
    },
    {
      "inputs": [
        {
          "internalType": "address",
          "name": "sender",
          "type": "address"
        }
      ],
      "name": "ERC20InvalidSender",
      "type": "error"
    },
    {
      "inputs": [
        {
          "internalType": "address",
          "name": "spender",
          "type": "address"
        }
      ],
      "name": "ERC20InvalidSpender",
      "type": "error"
    },
    {
      "inputs": [],
      "name": "EnforcedPause",
      "type": "error"
    },
    {
      "inputs": [],
      "name": "ExpectedPause",
      "type": "error"
    },
    {
      "anonymous": false,
      "inputs": [
        {
          "indexed": true,
          "internalType": "address",
          "name": "owner",
          "type": "address"
        },
        {
          "indexed": true,
          "internalType": "address",
          "name": "spender",
          "type": "address"
        },
        {
          "indexed": false,
          "internalType": "uint256",
          "name": "value",
          "type": "uint256"
        }
      ],
      "name": "Approval",
      "type": "event"
    },
    {
      "anonymous": false,
      "inputs": [
        {
          "indexed": false,
          "internalType": "address",
          "name": "account",
          "type": "address"
        }
      ],
      "name": "Paused",
      "type": "event"
    },
    {
      "anonymous": false,
      "inputs": [
        {
          "indexed": true,
          "internalType": "bytes32",
          "name": "role",
          "type": "bytes32"
        },
        {
          "indexed": true,
          "internalType": "bytes32",
          "name": "previousAdminRole",
          "type": "bytes32"
        },
        {
          "indexed": true,
          "internalType": "bytes32",
          "name": "newAdminRole",
          "type": "bytes32"
        }
      ],
      "name": "RoleAdminChanged",
      "type": "event"
    },
    {
      "anonymous": false,
      "inputs": [
        {
          "indexed": true,
          "internalType": "bytes32",
          "name": "role",
          "type": "bytes32"
        },
        {
          "indexed": true,
          "internalType": "address",
          "name": "account",
          "type": "address"
        },
        {
          "indexed": true,
          "internalType": "address",
          "name": "sender",
          "type": "address"
        }
      ],
      "name": "RoleGranted",
      "type": "event"
    },
    {
      "anonymous": false,
      "inputs": [
        {
          "indexed": true,
          "internalType": "bytes32",
          "name": "role",
          "type": "bytes32"
        },
        {
          "indexed": true,
          "internalType": "address",
          "name": "account",
          "type": "address"
        },
        {
          "indexed": true,
          "internalType": "address",
          "name": "sender",
          "type": "address"
        }
      ],
      "name": "RoleRevoked",
      "type": "event"
    },
    {
      "anonymous": false,
      "inputs": [
        {
          "indexed": true,
          "internalType": "address",
          "name": "from",
          "type": "address"
        },
        {
          "indexed": true,
          "internalType": "address",
          "name": "to",
          "type": "address"
        },
        {
          "indexed": false,
          "internalType": "uint256",
          "name": "value",
          "type": "uint256"
        }
      ],
      "name": "Transfer",
      "type": "event"
    },
    {
      "anonymous": false,
      "inputs": [
        {
          "indexed": false,
          "internalType": "address",
          "name": "account",
          "type": "address"
        }
      ],
      "name": "Unpaused",
      "type": "event"
    },
    {
      "inputs": [],
      "name": "DEFAULT_ADMIN_ROLE",
      "outputs": [
        {
          "internalType": "bytes32",
          "name": "",
          "type": "bytes32"
        }
      ],
      "stateMutability": "view",
      "type": "function"
    },
    {
      "inputs": [],
      "name": "MINTER_ROLE",
      "outputs": [
        {
          "internalType": "bytes32",
          "name": "",
          "type": "bytes32"
        }
      ],
      "stateMutability": "view",
      "type": "function"
    },
    {
      "inputs": [],
      "name": "PAUSER_ROLE",
      "outputs": [
        {
          "internalType": "bytes32",
          "name": "",
          "type": "bytes32"
        }
      ],
      "stateMutability": "view",
      "type": "function"
    },
    {
      "inputs": [
        {
          "internalType": "address",
          "name": "owner",
          "type": "address"
        },
        {
          "internalType": "address",
          "name": "spender",
          "type": "address"
        }
      ],
      "name": "allowance",
      "outputs": [
        {
          "internalType": "uint256",
          "name": "",
          "type": "uint256"
        }
      ],
      "stateMutability": "view",
      "type": "function"
    },
    {
      "inputs": [
        {
          "internalType": "address",
          "name": "spender",
          "type": "address"
        },
        {
          "internalType": "uint256",
          "name": "value",
          "type": "uint256"
        }
      ],
      "name": "approve",
      "outputs": [
        {
          "internalType": "bool",
          "name": "",
          "type": "bool"
        }
      ],
      "stateMutability": "nonpayable",
      "type": "function"
    },
    {
      "inputs": [
        {
          "internalType": "address",
          "name": "account",
          "type": "address"
        }
      ],
      "name": "balanceOf",
      "outputs": [
        {
          "internalType": "uint256",
          "name": "",
          "type": "uint256"
        }
      ],
      "stateMutability": "view",
      "type": "function"
    },
    {
      "inputs": [
        {
          "internalType": "uint256",
          "name": "amount",
          "type": "uint256"
        }
      ],
      "name": "burn",
      "outputs": [],
      "stateMutability": "nonpayable",
      "type": "function"
    },
    {
      "inputs": [],
      "name": "decimals",
      "outputs": [
        {
          "internalType": "uint8",
          "name": "",
          "type": "uint8"
        }
      ],
      "stateMutability": "view",
      "type": "function"
    },
    {
      "inputs": [
        {
          "internalType": "bytes32",
          "name": "role",
          "type": "bytes32"
        }
      ],
      "name": "getRoleAdmin",
      "outputs": [
        {
          "internalType": "bytes32",
          "name": "",
          "type": "bytes32"
        }
      ],
      "stateMutability": "view",
      "type": "function"
    },
    {
      "inputs": [
        {
          "internalType": "bytes32",
          "name": "role",
          "type": "bytes32"
        },
        {
          "internalType": "address",
          "name": "account",
          "type": "address"
        }
      ],
      "name": "grantRole",
      "outputs": [],
      "stateMutability": "nonpayable",
      "type": "function"
    },
    {
      "inputs": [
        {
          "internalType": "bytes32",
          "name": "role",
          "type": "bytes32"
        },
        {
          "internalType": "address",
          "name": "account",
          "type": "address"
        }
      ],
      "name": "hasRole",
      "outputs": [
        {
          "internalType": "bool",
          "name": "",
          "type": "bool"
        }
      ],
      "stateMutability": "view",
      "type": "function"
    },
    {
      "inputs": [
        {
          "internalType": "address",
          "name": "to",
          "type": "address"
        },
        {
          "internalType": "uint256",
          "name": "amount",
          "type": "uint256"
        }
      ],
      "name": "mint",
      "outputs": [],
      "stateMutability": "nonpayable",
      "type": "function"
    },
    {
      "inputs": [],
      "name": "name",
      "outputs": [
        {
          "internalType": "string",
          "name": "",
          "type": "string"
        }
      ],
      "stateMutability": "view",
      "type": "function"
    },
    {
      "inputs": [],
      "name": "pause",
      "outputs": [],
      "stateMutability": "nonpayable",
      "type": "function"
    },
    {
      "inputs": [],
      "name": "paused",
      "outputs": [
        {
          "internalType": "bool",
          "name": "",
          "type": "bool"
        }
      ],
      "stateMutability": "view",
      "type": "function"
    },
    {
      "inputs": [
        {
          "internalType": "bytes32",
          "name": "role",
          "type": "bytes32"
        },
        {
          "internalType": "address",
          "name": "callerConfirmation",
          "type": "address"
        }
      ],
      "name": "renounceRole",
      "outputs": [],
      "stateMutability": "nonpayable",
      "type": "function"
    },
    {
      "inputs": [
        {
          "internalType": "bytes32",
          "name": "role",
          "type": "bytes32"
        },
        {
          "internalType": "address",
          "name": "account",
          "type": "address"
        }
      ],
      "name": "revokeRole",
      "outputs": [],
      "stateMutability": "nonpayable",
      "type": "function"
    },
    {
      "inputs": [
        {
          "internalType": "bytes4",
          "name": "interfaceId",
          "type": "bytes4"
        }
      ],
      "name": "supportsInterface",
      "outputs": [
        {
          "internalType": "bool",
          "name": "",
          "type": "bool"
        }
      ],
      "stateMutability": "view",
      "type": "function"
    },
    {
      "inputs": [],
      "name": "symbol",
      "outputs": [
        {
          "internalType": "string",
          "name": "",
          "type": "string"
        }
      ],
      "stateMutability": "view",
      "type": "function"
    },
    {
      "inputs": [],
      "name": "totalSupply",
      "outputs": [
        {
          "internalType": "uint256",
          "name": "",
          "type": "uint256"
        }
      ],
      "stateMutability": "view",
      "type": "function"
    },
    {
      "inputs": [
        {
          "internalType": "address",
          "name": "to",
          "type": "address"
        },
        {
          "internalType": "uint256",
          "name": "value",
          "type": "uint256"
        }
      ],
      "name": "transfer",
      "outputs": [
        {
          "internalType": "bool",
          "name": "",
          "type": "bool"
        }
      ],
      "stateMutability": "nonpayable",
      "type": "function"
    },
    {
      "inputs": [
        {
          "internalType": "address",
          "name": "from",
          "type": "address"
        },
        {
          "internalType": "address",
          "name": "to",
          "type": "address"
        },
        {
          "internalType": "uint256",
          "name": "value",
          "type": "uint256"
        }
      ],
      "name": "transferFrom",
      "outputs": [
        {
          "internalType": "bool",
          "name": "",
          "type": "bool"
        }
      ],
      "stateMutability": "nonpayable",
      "type": "function"
    },
    {
      "inputs": [],
      "name": "unpause",
      "outputs": [],
      "stateMutability": "nonpayable",
      "type": "function"
    }
  ],
  "bytecode": "0x608060405234801561001057600080fd5b506040518060400160405280600981526020017f424c544d546f6b656e00000000000000000000000000000000000000000000008152506040518060400160405280600481526020017f424c544d00000000000000000000000000000000000000000000000000000000815250816003908161008c91906107e2565b50806004908161009c91906107e2565b5050506000600660006101000a81548160ff0219169083151502179055506100cd6000801b3361016b60201b60201c565b506100fe7f9f2df0fed2c77648de5860a4cc508cd0818c85b8b8a1ab4ceeef8d981c8956a63361016b60201b60201c565b5061012f7f65d7a28e3265b37a6474929f336521b332c1681b933f6cb9f3376673440d862a3361016b60201b60201c565b506101663361014261026960201b60201c565b600a61014e9190610a23565b6103e861015b9190610a6e565b61027260201b60201c565b610ba1565b600061017d83836102fa60201b60201c565b61025e5760016005600085815260200190815260200160002060000160008473ffffffffffffffffffffffffffffffffffffffff1673ffffffffffffffffffffffffffffffffffffffff16815260200190815260200160002060006101000a81548160ff0219169083151502179055506101fb61036560201b60201c565b73ffffffffffffffffffffffffffffffffffffffff168273ffffffffffffffffffffffffffffffffffffffff16847f2f8788117e7eff1d82e926ec794901d17c78024a50270940304540a733656f0d60405160405180910390a460019050610263565b600090505b92915050565b60006006905090565b600073ffffffffffffffffffffffffffffffffffffffff168273ffffffffffffffffffffffffffffffffffffffff16036102e45760006040517fec442f050000000000000000000000000000000000000000000000000000000081526004016102db9190610af1565b60405180910390fd5b6102f66000838361036d60201b60201c565b5050565b60006005600084815260200190815260200160002060000160008373ffffffffffffffffffffffffffffffffffffffff1673ffffffffffffffffffffffffffffffffffffffff16815260200190815260200160002060009054906101000a900460ff16905092915050565b600033905090565b600073ffffffffffffffffffffffffffffffffffffffff168373ffffffffffffffffffffffffffffffffffffffff16036103bf5780600260008282546103b39190610b0c565b92505081905550610492565b60008060008573ffffffffffffffffffffffffffffffffffffffff1673ffffffffffffffffffffffffffffffffffffffff1681526020019081526020016000205490508181101561044b578381836040517fe450d38c00000000000000000000000000000000000000000000000000000000815260040161044293929190610b4f565b60405180910390fd5b8181036000808673ffffffffffffffffffffffffffffffffffffffff1673ffffffffffffffffffffffffffffffffffffffff16815260200190815260200160002081905550505b600073ffffffffffffffffffffffffffffffffffffffff168273ffffffffffffffffffffffffffffffffffffffff16036104db5780600260008282540392505081905550610528565b806000808473ffffffffffffffffffffffffffffffffffffffff1673ffffffffffffffffffffffffffffffffffffffff168152602001908152602001600020600082825401925050819055505b8173ffffffffffffffffffffffffffffffffffffffff168373ffffffffffffffffffffffffffffffffffffffff167fddf252ad1be2c89b69c2b068fc378daa952ba7f163c4a11628f55a4df523b3ef836040516105859190610b86565b60405180910390a3505050565b600081519050919050565b7f4e487b7100000000000000000000000000000000000000000000000000000000600052604160045260246000fd5b7f4e487b7100000000000000000000000000000000000000000000000000000000600052602260045260246000fd5b6000600282049050600182168061061357607f821691505b602082108103610626576106256105cc565b5b50919050565b60008190508160005260206000209050919050565b60006020601f8301049050919050565b600082821b905092915050565b60006008830261068e7fffffffffffffffffffffffffffffffffffffffffffffffffffffffffffffffff82610651565b6106988683610651565b95508019841693508086168417925050509392505050565b6000819050919050565b6000819050919050565b60006106df6106da6106d5846106b0565b6106ba565b6106b0565b9050919050565b6000819050919050565b6106f9836106c4565b61070d610705826106e6565b84845461065e565b825550505050565b600090565b610722610715565b61072d8184846106f0565b505050565b5b818110156107515761074660008261071a565b600181019050610733565b5050565b601f821115610796576107678161062c565b61077084610641565b8101602085101561077f578190505b61079361078b85610641565b830182610732565b50505b505050565b600082821c905092915050565b60006107b96000198460080261079b565b1980831691505092915050565b60006107d283836107a8565b9150826002028217905092915050565b6107eb82610592565b67ffffffffffffffff8111156108045761080361059d565b5b61080e82546105fb565b610819828285610755565b600060209050601f83116001811461084c576000841561083a578287015190505b61084485826107c6565b8655506108ac565b601f19841661085a8661062c565b60005b828110156108825784890151825560018201915060208501945060208101905061085d565b8683101561089f578489015161089b601f8916826107a8565b8355505b6001600288020188555050505b505050505050565b7f4e487b7100000000000000000000000000000000000000000000000000000000600052601160045260246000fd5b60008160011c9050919050565b6000808291508390505b600185111561093a57808604811115610916576109156108b4565b5b60018516156109255780820291505b8081029050610933856108e3565b94506108fa565b94509492505050565b6000826109535760019050610a0f565b816109615760009050610a0f565b81600181146109775760028114610981576109b0565b6001915050610a0f565b60ff841115610993576109926108b4565b5b8360020a9150848211156109aa576109a96108b4565b5b50610a0f565b5060208310610133831016604e8410600b84101617156109e55782820a9050838111156109e0576109df6108b4565b5b610a0f565b6109f284848460016108f0565b92509050818404811115610a0957610a086108b4565b5b81810290505b9392505050565b600060ff82169050919050565b6000610a2e826106b0565b9150610a3983610a16565b9250610a667fffffffffffffffffffffffffffffffffffffffffffffffffffffffffffffffff8484610943565b905092915050565b6000610a79826106b0565b9150610a84836106b0565b9250828202610a92816106b0565b91508282048414831517610aa957610aa86108b4565b5b5092915050565b600073ffffffffffffffffffffffffffffffffffffffff82169050919050565b6000610adb82610ab0565b9050919050565b610aeb81610ad0565b82525050565b6000602082019050610b066000830184610ae2565b92915050565b6000610b17826106b0565b9150610b22836106b0565b9250828201905080821115610b3a57610b396108b4565b5b92915050565b610b49816106b0565b82525050565b6000606082019050610b646000830186610ae2565b610b716020830185610b40565b610b7e6040830184610b40565b949350505050565b6000602082019050610b9b6000830184610b40565b92915050565b611a7380610bb06000396000f3fe608060405234801561001057600080fd5b506004361061014d5760003560e01c806342966c68116100c3578063a217fddf1161007c578063a217fddf1461038c578063a9059cbb146103aa578063d5391393146103da578063d547741f146103f8578063dd62ed3e14610414578063e63ab1e9146104445761014d565b806342966c68146102ca5780635c975abb146102e657806370a08231146103045780638456cb591461033457806391d148541461033e57806395d89b411461036e5761014d565b8063248a9ca311610115578063248a9ca31461021e5780632f2ff15d1461024e578063313ce5671461026a57806336568abe146102885780633f4ba83a146102a457806340c10f19146102ae5761014d565b806301ffc9a71461015257806306fdde0314610182578063095ea7b3146101a057806318160ddd146101d057806323b872dd146101ee575b600080fd5b61016c600480360381019061016791906114ec565b610462565b6040516101799190611534565b60405180910390f35b61018a6104dc565b60405161019791906115df565b60405180910390f35b6101ba60048036038101906101b59190611695565b61056e565b6040516101c79190611534565b60405180910390f35b6101d8610591565b6040516101e591906116e4565b60405180910390f35b610208600480360381019061020391906116ff565b61059b565b6040516102159190611534565b60405180910390f35b61023860048036038101906102339190611788565b6105ca565b60405161024591906117c4565b60405180910390f35b610268600480360381019061026391906117df565b6105ea565b005b61027261060c565b60405161027f919061183b565b60405180910390f35b6102a2600480360381019061029d91906117df565b610615565b005b6102ac610690565b005b6102c860048036038101906102c39190611695565b6106c5565b005b6102e460048036038101906102df9190611856565b610706565b005b6102ee610746565b6040516102fb9190611534565b60405180910390f35b61031e60048036038101906103199190611883565b61075d565b60405161032b91906116e4565b60405180910390f35b61033c6107a5565b005b610358600480360381019061035391906117df565b6107da565b6040516103659190611534565b60405180910390f35b610376610845565b60405161038391906115df565b60405180910390f35b6103946108d7565b6040516103a191906117c4565b60405180910390f35b6103c460048036038101906103bf9190611695565b6108de565b6040516103d19190611534565b60405180910390f35b6103e2610901565b6040516103ef91906117c4565b60405180910390f35b610412600480360381019061040d91906117df565b610925565b005b61042e600480360381019061042991906118b0565b610947565b60405161043b91906116e4565b60405180910390f35b61044c6109ce565b60405161045991906117c4565b60405180910390f35b60007f7965db0b000000000000000000000000000000000000000000000000000000007bffffffffffffffffffffffffffffffffffffffffffffffffffffffff1916827bffffffffffffffffffffffffffffffffffffffffffffffffffffffff191614806104d557506104d4826109f2565b5b9050919050565b6060600380546104eb9061191f565b80601f01602080910402602001604051908101604052809291908181526020018280546105179061191f565b80156105645780601f1061053957610100808354040283529160200191610564565b820191906000526020600020905b81548152906001019060200180831161054757829003601f168201915b5050505050905090565b600080610579610a5c565b9050610586818585610a64565b600191505092915050565b6000600254905090565b6000806105a6610a5c565b90506105b3858285610a76565b6105be858585610b0a565b60019150509392505050565b600060056000838152602001908152602001600020600101549050919050565b6105f3826105ca565b6105fc81610bfe565b6106068383610c12565b50505050565b60006006905090565b61061d610a5c565b73ffffffffffffffffffffffffffffffffffffffff168173ffffffffffffffffffffffffffffffffffffffff1614610681576040517f6697b23200000000000000000000000000000000000000000000000000000000815260040160405180910390fd5b61068b8282610d04565b505050565b7f65d7a28e3265b37a6474929f336521b332c1681b933f6cb9f3376673440d862a6106ba81610bfe565b6106c2610df7565b50565b7f9f2df0fed2c77648de5860a4cc508cd0818c85b8b8a1ab4ceeef8d981c8956a66106ef81610bfe565b6106f7610e5a565b6107018383610e9b565b505050565b7f9f2df0fed2c77648de5860a4cc508cd0818c85b8b8a1ab4ceeef8d981c8956a661073081610bfe565b610738610e5a565b6107423383610f1d565b5050565b6000600660009054906101000a900460ff16905090565b60008060008373ffffffffffffffffffffffffffffffffffffffff1673ffffffffffffffffffffffffffffffffffffffff168152602001908152602001600020549050919050565b7f65d7a28e3265b37a6474929f336521b332c1681b933f6cb9f3376673440d862a6107cf81610bfe565b6107d7610f9f565b50565b60006005600084815260200190815260200160002060000160008373ffffffffffffffffffffffffffffffffffffffff1673ffffffffffffffffffffffffffffffffffffffff16815260200190815260200160002060009054906101000a900460ff16905092915050565b6060600480546108549061191f565b80601f01602080910402602001604051908101604052809291908181526020018280546108809061191f565b80156108cd5780601f106108a2576101008083540402835291602001916108cd565b820191906000526020600020905b8154815290600101906020018083116108b057829003601f168201915b5050505050905090565b6000801b81565b6000806108e9610a5c565b90506108f6818585610b0a565b600191505092915050565b7f9f2df0fed2c77648de5860a4cc508cd0818c85b8b8a1ab4ceeef8d981c8956a681565b61092e826105ca565b61093781610bfe565b6109418383610d04565b50505050565b6000600160008473ffffffffffffffffffffffffffffffffffffffff1673ffffffffffffffffffffffffffffffffffffffff16815260200190815260200160002060008373ffffffffffffffffffffffffffffffffffffffff1673ffffffffffffffffffffffffffffffffffffffff16815260200190815260200160002054905092915050565b7f65d7a28e3265b37a6474929f336521b332c1681b933f6cb9f3376673440d862a81565b60007f01ffc9a7000000000000000000000000000000000000000000000000000000007bffffffffffffffffffffffffffffffffffffffffffffffffffffffff1916827bffffffffffffffffffffffffffffffffffffffffffffffffffffffff1916149050919050565b600033905090565b610a718383836001611002565b505050565b6000610a828484610947565b90507fffffffffffffffffffffffffffffffffffffffffffffffffffffffffffffffff8114610b045781811015610af4578281836040517ffb8f41b2000000000000000000000000000000000000000000000000000000008152600401610aeb9392919061195f565b60405180910390fd5b610b0384848484036000611002565b5b50505050565b600073ffffffffffffffffffffffffffffffffffffffff168373ffffffffffffffffffffffffffffffffffffffff1603610b7c5760006040517f96c6fd1e000000000000000000000000000000000000000000000000000000008152600401610b739190611996565b60405180910390fd5b600073ffffffffffffffffffffffffffffffffffffffff168273ffffffffffffffffffffffffffffffffffffffff1603610bee5760006040517fec442f05000000000000000000000000000000000000000000000000000000008152600401610be59190611996565b60405180910390fd5b610bf98383836111d9565b505050565b610c0f81610c0a610a5c565b6113fe565b50565b6000610c1e83836107da565b610cf95760016005600085815260200190815260200160002060000160008473ffffffffffffffffffffffffffffffffffffffff1673ffffffffffffffffffffffffffffffffffffffff16815260200190815260200160002060006101000a81548160ff021916908315150217905550610c96610a5c565b73ffffffffffffffffffffffffffffffffffffffff168273ffffffffffffffffffffffffffffffffffffffff16847f2f8788117e7eff1d82e926ec794901d17c78024a50270940304540a733656f0d60405160405180910390a460019050610cfe565b600090505b92915050565b6000610d1083836107da565b15610dec5760006005600085815260200190815260200160002060000160008473ffffffffffffffffffffffffffffffffffffffff1673ffffffffffffffffffffffffffffffffffffffff16815260200190815260200160002060006101000a81548160ff021916908315150217905550610d89610a5c565b73ffffffffffffffffffffffffffffffffffffffff168273ffffffffffffffffffffffffffffffffffffffff16847ff6391f5c32d9c69d2a47ea670b442974b53935d1edc7fd64eb21e047a839171b60405160405180910390a460019050610df1565b600090505b92915050565b610dff61144f565b6000600660006101000a81548160ff0219169083151502179055507f5db9ee0a495bf2e6ff9c91a7834c1ba4fdd244a5e8aa4e537bd38aeae4b073aa610e43610a5c565b604051610e509190611996565b60405180910390a1565b610e62610746565b15610e99576040517fd93c066500000000000000000000000000000000000000000000000000000000815260040160405180910390fd5b565b600073ffffffffffffffffffffffffffffffffffffffff168273ffffffffffffffffffffffffffffffffffffffff1603610f0d5760006040517fec442f05000000000000000000000000000000000000000000000000000000008152600401610f049190611996565b60405180910390fd5b610f19600083836111d9565b5050565b600073ffffffffffffffffffffffffffffffffffffffff168273ffffffffffffffffffffffffffffffffffffffff1603610f8f5760006040517f96c6fd1e000000000000000000000000000000000000000000000000000000008152600401610f869190611996565b60405180910390fd5b610f9b826000836111d9565b5050565b610fa7610e5a565b6001600660006101000a81548160ff0219169083151502179055507f62e78cea01bee320cd4e420270b5ea74000d11b0c9f74754ebdbfc544b05a258610feb610a5c565b604051610ff89190611996565b60405180910390a1565b600073ffffffffffffffffffffffffffffffffffffffff168473ffffffffffffffffffffffffffffffffffffffff16036110745760006040517fe602df0500000000000000000000000000000000000000000000000000000000815260040161106b9190611996565b60405180910390fd5b600073ffffffffffffffffffffffffffffffffffffffff168373ffffffffffffffffffffffffffffffffffffffff16036110e65760006040517f94280d620000000000000000000000000000000000000000000000000000000081526004016110dd9190611996565b60405180910390fd5b81600160008673ffffffffffffffffffffffffffffffffffffffff1673ffffffffffffffffffffffffffffffffffffffff16815260200190815260200160002060008573ffffffffffffffffffffffffffffffffffffffff1673ffffffffffffffffffffffffffffffffffffffff1681526020019081526020016000208190555080156111d3578273ffffffffffffffffffffffffffffffffffffffff168473ffffffffffffffffffffffffffffffffffffffff167f8c5be1e5ebec7d5bd14f71427d1e84f3dd0314c0f7b2291e5b200ac8c7c3b925846040516111ca91906116e4565b60405180910390a35b50505050565b600073ffffffffffffffffffffffffffffffffffffffff168373ffffffffffffffffffffffffffffffffffffffff160361122b57806002600082825461121f91906119e0565b925050819055506112fe565b60008060008573ffffffffffffffffffffffffffffffffffffffff1673ffffffffffffffffffffffffffffffffffffffff168152602001908152602001600020549050818110156112b7578381836040517fe450d38c0000000000000000000000000000000000000000000000000000000081526004016112ae9392919061195f565b60405180910390fd5b8181036000808673ffffffffffffffffffffffffffffffffffffffff1673ffffffffffffffffffffffffffffffffffffffff16815260200190815260200160002081905550505b600073ffffffffffffffffffffffffffffffffffffffff168273ffffffffffffffffffffffffffffffffffffffff16036113475780600260008282540392505081905550611394565b806000808473ffffffffffffffffffffffffffffffffffffffff1673ffffffffffffffffffffffffffffffffffffffff168152602001908152602001600020600082825401925050819055505b8173ffffffffffffffffffffffffffffffffffffffff168373ffffffffffffffffffffffffffffffffffffffff167fddf252ad1be2c89b69c2b068fc378daa952ba7f163c4a11628f55a4df523b3ef836040516113f191906116e4565b60405180910390a3505050565b61140882826107da565b61144b5780826040517fe2517d3f000000000000000000000000000000000000000000000000000000008152600401611442929190611a14565b60405180910390fd5b5050565b611457610746565b61148d576040517f8dfc202b00000000000000000000000000000000000000000000000000000000815260040160405180910390fd5b565b600080fd5b60007fffffffff0000000000000000000000000000000000000000000000000000000082169050919050565b6114c981611494565b81146114d457600080fd5b50565b6000813590506114e6816114c0565b92915050565b6000602082840312156115025761150161148f565b5b6000611510848285016114d7565b91505092915050565b60008115159050919050565b61152e81611519565b82525050565b60006020820190506115496000830184611525565b92915050565b600081519050919050565b600082825260208201905092915050565b60005b8381101561158957808201518184015260208101905061156e565b60008484015250505050565b6000601f19601f8301169050919050565b60006115b18261154f565b6115bb818561155a565b93506115cb81856020860161156b565b6115d481611595565b840191505092915050565b600060208201905081810360008301526115f981846115a6565b905092915050565b600073ffffffffffffffffffffffffffffffffffffffff82169050919050565b600061162c82611601565b9050919050565b61163c81611621565b811461164757600080fd5b50565b60008135905061165981611633565b92915050565b6000819050919050565b6116728161165f565b811461167d57600080fd5b50565b60008135905061168f81611669565b92915050565b600080604083850312156116ac576116ab61148f565b5b60006116ba8582860161164a565b92505060206116cb85828601611680565b9150509250929050565b6116de8161165f565b82525050565b60006020820190506116f960008301846116d5565b92915050565b6000806000606084860312156117185761171761148f565b5b60006117268682870161164a565b93505060206117378682870161164a565b925050604061174886828701611680565b9150509250925092565b6000819050919050565b61176581611752565b811461177057600080fd5b50565b6000813590506117828161175c565b92915050565b60006020828403121561179e5761179d61148f565b5b60006117ac84828501611773565b91505092915050565b6117be81611752565b82525050565b60006020820190506117d960008301846117b5565b92915050565b600080604083850312156117f6576117f561148f565b5b600061180485828601611773565b92505060206118158582860161164a565b9150509250929050565b600060ff82169050919050565b6118358161181f565b82525050565b6000602082019050611850600083018461182c565b92915050565b60006020828403121561186c5761186b61148f565b5b600061187a84828501611680565b91505092915050565b6000602082840312156118995761189861148f565b5b60006118a78482850161164a565b91505092915050565b600080604083850312156118c7576118c661148f565b5b60006118d58582860161164a565b92505060206118e68582860161164a565b9150509250929050565b7f4e487b7100000000000000000000000000000000000000000000000000000000600052602260045260246000fd5b6000600282049050600182168061193757607f821691505b60208210810361194a576119496118f0565b5b50919050565b61195981611621565b82525050565b60006060820190506119746000830186611950565b61198160208301856116d5565b61198e60408301846116d5565b949350505050565b60006020820190506119ab6000830184611950565b92915050565b7f4e487b7100000000000000000000000000000000000000000000000000000000600052601160045260246000fd5b60006119eb8261165f565b91506119f68361165f565b9250828201905080821115611a0e57611a0d6119b1565b5b92915050565b6000604082019050611a296000830185611950565b611a3660208301846117b5565b939250505056fea2646970667358221220d2eaa94dc43a472456ea70d54833b15c2d295dd52a28d86d2b353155af5a719b64736f6c634300081b0033",
  "linkReferences": {},
  "deployedLinkReferences": {}
}